:100000000C945D000C9485000C9485000C94850084
:100010000C9485000C9485000C9485000C9485004C
:100020000C9485000C9485000C9485000C9485003C
:100030000C9485000C9485000C9485000C9485002C
:100040000C9429060C9485000C94F7050C94D105AA
:100050000C9485000C9485000C9485000C9485000C
:100060000C9473060C948500000000002400270007
:100070002A0000000000250028002B0004040404CE
:100080000404040402020202020203030303030342
:10009000010204081020408001020408102001021F
:1000A00004081020000000080002010000030407FB
:1000B0000000000000000000A10711241FBECFEFC8
:1000C000D8E0DEBFCDBF12E0A0E0B1E0EEE4F3E1A6
:1000D00002C005900D92A63FB107D9F724E0A6EF24
:1000E000B2E001C01D92A937B207E1F710E0CDE5FB
:1000F000D0E004C02197FE010E949A09CC35D107B7
:10010000C9F70E9400080C94A5090C9400003091D6
:10011000B603313208F04BC0809192038111FCCFBD
:100120009091B50322E02093920321E02093910364
:100130002FEF2093900310928F0330938E03E5E905
:10014000F3E0AEE6B3E020E0321721F041914D93A9
:100150002F5FFACF10926D0320916D03990F922BB0
:1001600090936D0390916C03913061F410926C0345
:1001700090916D039093BB009091BC0093FDF8CFDC
:1001800095EC01C095EE9093BC0090919203923053
:10019000E1F3909190039F3F79F08091900380323A
:1001A00041F080919003803331F084E005C081E01C
:1001B00003C082E001C083E0109294031092B60362
:1001C000109293030895CF92DF92EF92FF920F93D4
:1001D0001F93CF93DF936C017A018B01C0E0D0E0D5
:1001E000CE15DF0581F0D8016D918D01D601ED911D
:1001F000FC910190F081E02DC6010995892B11F049
:100200002196EECF7E01C701DF91CF911F910F9113
:10021000FF90EF90DF90CF900895FC01538D448DB7
:10022000252F30E0842F90E0821B930B541710F0A1
:10023000CF96089501970895FC01918D828D9817AE
:1002400061F0828DDF01A80FB11D5D968C91928DBA
:100250009F5F9F73928F90E008958FEF9FEF0895B7
:10026000FC01918D828D981731F0828DE80FF11D80
:10027000858D90E008958FEF9FEF0895FC01918D9B
:10028000228D892F90E0805C9F4F821B91098F7394
:100290009927089587EB93E00E943E0121E0892B86
:1002A00009F420E0822F0895FC01848DDF01A80F5E
:1002B000B11DA35ABF4F2C91848D90E001968F738E
:1002C0009927848FA689B7892C93A089B1898C91AD
:1002D000837080648C93938D848D981306C00288FC
:1002E000F389E02D80818F7D80830895EF92FF92C6
:1002F0000F931F93CF93DF93EC0181E0888F9B8D49
:100300008C8D981305C0E889F989808185FD26C008
:10031000F62E0B8D10E00F5F1F4F0F731127E02E8D
:100320008C8DE8120CC00FB607FCFACFE889F9896A
:10033000808185FFF5CFCE010E945401F1CF8B8DD6
:10034000FE01E80FF11DE35AFF4FF0829FB7F894CA
:100350000B8FEA89FB89808180620AC09FB7F8947D
:10036000EE89FF896083E889F989808183708064E0
:1003700080839FBF81E090E0DF91CF911F910F912B
:10038000FF90EF900895CF93DF93EC01888D882341
:10039000C9F0EA89FB89808185FD05C0A889B989F2
:1003A0008C9186FD0FC00FB607FCF5CF808185FFCD
:1003B000F2CFA889B9898C9185FFEDCFCE010E943B
:1003C0005401E7CFDF91CF91089580E090E0892B31
:1003D00029F00E944A0181110C940000089590E0D8
:1003E000FC01EC55FF4F2491FC01E057FF4F349185
:1003F000FC01E458FF4FE491EE2309F43CC02223B2
:1004000039F1233091F038F42130A9F0223001F590
:1004100084B58F7D12C0273091F02830A1F02430B0
:10042000B9F4809180008F7D03C0809180008F7728
:10043000809380000DC084B58F7784BD09C0809102
:10044000B0008F7703C08091B0008F7D8093B000A3
:10045000F0E0EE0FFF1FEE58FF4FA591B4919FB74C
:10046000F894611104C08C913095382302C0EC914E
:100470003E2B3C939FBF0895CF93DF9390E0FC0108
:10048000E057FF4F2491FC01E458FF4F84918823EB
:1004900061F190E0880F991FFC01E859FF4FC59169
:1004A000D491FC01EE58FF4FA591B491611109C0A0
:1004B0009FB7F8948881209582238883EC912E231E
:1004C0000BC0623061F49FB7F8948881322F309569
:1004D00083238883EC912E2B2C939FBF06C08FB76C
:1004E000F894E8812E2B28838FBFDF91CF91089558
:1004F0008E3008F08E508770806480937C008091ED
:100500007A00806480937A0080917A0086FDFCCF27
:10051000809178002091790090E0922B08953FB768
:10052000F8948091640390916503A0916603B09163
:10053000670326B5A89B05C02F3F19F00196A11DA2
:10054000B11D3FBFBA2FA92F982F8827820F911D69
:10055000A11DB11DBC01CD0142E0660F771F881FB0
:10056000991F4A95D1F708958F929F92AF92BF92AB
:10057000CF92DF92EF92FF926B017C010E948F027B
:100580004B015C01C114D104E104F104F1F00E94BB
:100590008F02DC01CB0188199909AA09BB09883EA1
:1005A0009340A105B10570F321E0C21AD108E1081A
:1005B000F10888EE880E83E0981EA11CB11CC114BE
:1005C000D104E104F10419F7DDCFFF90EF90DF9043
:1005D000CF90BF90AF909F908F90089521E001C081
:1005E000220F6A95EAF7DC011C962C931C971A9649
:1005F0005C934E931997ED91FC910484F585E02D61
:1006000060E0099408950895DC01ED91FC91068461
:10061000F785E02D41E0099581E090E00895DC0147
:10062000ED91FC910684F785E02D40E00994CF938D
:10063000DF93CDB7DEB728970FB6F894DEBF0FBEB5
:10064000CDBF409100015091010160910201709174
:1006500003014D835E836F8378874091040150913D
:100660000501609106017091070149835A836B83EC
:100670007C8320916704821710F08FEF820F3091F6
:10068000680490E0FE01E80FF91F303121F42430B6
:1006900011F4618101C06581606880E694E028966C
:1006A0000FB6F894DEBF0FBECDBFDF91CF910C9493
:1006B0000F030F931F93CF93DF93EC01423018F099
:1006C0008C8188608C834F836887222329F0413096
:1006D00019F48C8184608C8364E670E080E090E0A3
:1006E0000E94B4026C8164FD31C0E881F981068406
:1006F000F785E02D42E063E0CE0109958BE496E4B6
:100700000197F1F7E881F9810684F785E02D42E051
:1007100063E0CE01099503E512E0C8010197F1F706
:10072000E881F9810684F785E02D42E063E0CE019F
:100730000995C8010197F1F7E881F9810684F785E9
:10074000E02D42E062E0CE01099517C06062CE0163
:100750000E940F038BE496E40197F1F76C816062CD
:10076000CE010E940F0303E512E0C8010197F1F7E3
:100770006C816062CE010E940F03C8010197F1F7FE
:100780006C816062CE010E940F038BEE90E00197B6
:10079000F1F784E08D836CE0CE010E940F0361E0ED
:1007A000CE010E940F038BE39FE10197F1F782E0F6
:1007B0008E8366E0CE010E940F03E881F9810484F4
:1007C000F585E02D6FEFCE01DF91CF911F910F9155
:1007D00009940895089585ED8093BC008091BC0034
:1007E00084FDFCCF10929203089540913603262F8A
:1007F00030E0240F311D21323105DCF420919203C9
:100800002430C9F4FC0180E090E0861758F4309160
:1008100036032191DC01AA5EBC4FA30FB11D2C93BE
:100820000196F3CF80913603680F6093360380E022
:10083000089581E0089582E008950895E0915E03AF
:1008400080915D03E81730F4F0E0EA50FD4F8081BD
:1008500090E008958FEF9FEF089590915E0380914F
:100860005D03981750F4E92FF0E0EA50FD4F208126
:1008700030E09F5F90935E0302C02FEF3FEFC9010E
:10088000089580915D0390E020915E03821B9109A1
:100890000895CF92DF92EF92FF920F931F93CF9321
:1008A000DF937C01CB018A0120919303222389F0FD
:1008B000EB016B01C40ED51ECC15DD0569F0699105
:1008C000D701ED91FC910190F081E02DC7010995D0
:1008D000F3CF642F0E94F503C801DF91CF911F91E0
:1008E0000F91FF90EF90DF90CF900895CF93DF931B
:1008F0001F92CDB7DEB76983209193032223D1F0F5
:100900002091B603203240F021E030E0FC01338337
:10091000228380E090E015C080919403E82FF0E0FE
:10092000EB56FC4F998190838F5F80939403809363
:10093000B60305C061E0CE0101960E94F50381E097
:1009400090E00F90DF91CF910895FC01838188237F
:10095000C1F0962F6181609569236083828191E067
:10096000909393038093B503109294031092B6036F
:1009700084E594E00E9476040E948700282F30E0EE
:1009800002C020E030E081E090E0232B11F080E015
:1009900090E00895EF92FF920F931F93CF938C01F5
:1009A000FC0184E0C0E060FF02C09589C92B669518
:1009B000815031968111F7CF413011F4F80144890B
:1009C000F8018585C82BC42B7801FEE0EF0EF11CE1
:1009D000F80162896C2BC7010E94A504F8016289A5
:1009E00060956C23C701CF911F910F91FF90EF90FD
:1009F0000C94A5040F931F93CF93DF93062F0F70D2
:100A0000423019F440E0602F0EC0142FEC0170E06A
:100A100084E0759567958A95E1F7CE010E94CA0436
:100A2000412F602FCE01DF91CF911F910F910C9438
:100A3000CA04FC0184858823A9F02185328521150B
:100A4000310519F4611106C007C02130310521F4C8
:100A5000611102C0858701C015866585CF010E969C
:100A60000C94A5040895EF92FF920F931F93CF93D8
:100A7000DF93EC01062FF42EE22E8B85888B1092EB
:100A80005E0310925D03109294031092B6031092CD
:100A9000920311E01093910310926C0361E082E1E4
:100AA0000E94EF0161E083E10E94EF018091B900B3
:100AB0008E7F8093B9008091B9008D7F8093B900BB
:100AC00088E48093B80085E48093BC0082E093E0E2
:100AD00090935C0380935B0383E093E090935A03CD
:100AE000809359038889109393038093B5031092E0
:100AF00094031092B6030E94870091E0811190E068
:100B0000998B811105C084E594E00E942D048E87A5
:100B10008989882339F01F861C8260E0CE010E96F9
:100B20000E94A5042E2D4F2D602FCE01DF91CF9175
:100B30001F910F91FF90EF900C945903089580E05E
:100B400090E008950E94A0096115710579F0FB01FC
:100B500001900020E9F73197AF01461B570BDC01EC
:100B6000ED91FC910280F381E02D099480E090E00A
:100B70000895BC0180E694E00C94A405CF93DF9324
:100B8000BC0187EB93E00E94A405EC0160E471E0F6
:100B900087EB93E00E94A4058C0F9D1FDF91CF91FE
:100BA00008951F920F920FB60F9211242F933F9327
:100BB0004F935F936F937F938F939F93AF93BF9365
:100BC000EF93FF9387EB93E00E945401FF91EF9125
:100BD000BF91AF919F918F917F916F915F914F9155
:100BE0003F912F910F900FBE0F901F9018951F925D
:100BF0000F920FB60F9211242F938F939F93EF9321
:100C0000FF93E091C703F091C8038081E091CD0389
:100C1000F091CE0382FD12C090818091D0038F5F4E
:100C20008F732091D103821751F0E091D003F0E04F
:100C3000E954FC4F958F8093D00301C08081FF91D0
:100C4000EF919F918F912F910F900FBE0F901F905A
:100C500018951F920F920FB60F9211242F933F9366
:100C60008F939F93AF93BF938091600390916103A3
:100C7000A0916203B091630330915F0323E0230FDF
:100C80002D3720F40196A11DB11D05C026E8230FC4
:100C90000296A11DB11D20935F0380936003909382
:100CA0006103A0936203B093630380916403909106
:100CB0006503A0916603B09167030196A11DB11D64
:100CC0008093640390936503A0936603B0936703D6
:100CD000BF91AF919F918F913F912F910F900FBE38
:100CE0000F901F9018951F920F920FB60F9211241C
:100CF0002F933F934F935F936F937F938F939F9324
:100D0000AF93BF93EF93FF938091B900887F8036B4
:100D100009F49CC068F5883209F45BC090F4803116
:100D200009F454C038F4882309F4F6C0883009F473
:100D30004DC0F6C0883109F44CC0803209F45DC062
:100D4000EFC0803409F468C048F4803309F455C01A
:100D5000883309F0E5C080939003D8C0803509F44A
:100D60004FC0883509F45DC0883409F0D9C0D6C0B9
:100D7000883909F4C7C0A8F4883709F467C038F483
:100D8000883609F463C0803709F460C0C9C0883868
:100D900009F4B8C0803909F45FC0803809F0C0C0D8
:100DA0005BC0803B09F486C038F4803A09F466C021
:100DB000883A09F47FC0B4C0803C09F4A7C0883CDD
:100DC00009F4A4C0883B09F48AC0AAC080916D03CD
:100DD00010C090918F0380918E03981770F5E09169
:100DE0008F0381E08E0F80938F03F0E0E259FC4F78
:100DF00080818093BB0085EC86C0809390038EC079
:100E0000E0918F0381E08E0F80938F038091BB0070
:100E1000F0E0E259FC4F808390918F0380918E0324
:100E20006EC0E0918F0381E08E0F80938F038091DD
:100E3000BB00F0E0E259FC4F808380919103811167
:100E40006DC081E080936C0384EA61C083E080938D
:100E5000920310925803CFCF80915803803208F04C
:100E600051C0E091580381E08E0F80935803809128
:100E7000BB00F0E0E85CFC4F8083BDCF85EC809345
:100E8000BC001092920380915803803230F4E091BC
:100E90005803F0E0E85CFC4F10826091580370E06A
:100EA000E0915903F0915A0388E393E00995109279
:100EB000580336C084E08093920310923703109257
:100EC0003603E0915B03F0915C0309958091360352
:100ED000811105C081E08093360310921603E091E2
:100EE000370381E08E0F80933703F0E0EA5EFC4F1A
:100EF00080818093BB0090913703809136039817CF
:100F000008F479CF85E88093BC000AC085EC809313
:100F1000BC001092920304C0109290030E94EB0355
:100F2000FF91EF91BF91AF919F918F917F916F91C1
:100F30005F914F913F912F910F900FBE0F901F9097
:100F40001895E7EBF3E01382128288EE93E0A0E0BD
:100F5000B0E084839583A683B7832CE031E03183AE
:100F6000208325EC30E03587248724EC30E0378778
:100F7000268720EC30E0318B208B21EC30E0338B66
:100F8000228B22EC30E0358B248B26EC30E0378B43
:100F9000268B118E128E138E148EE4E5F4E01382EC
:100FA000128284839583A683B7838EE191E0918337
:100FB0008083E0E6F4E01382128280E391E0918383
:100FC0008083108A8FEF87871686118A87E283874E
:100FD000148615861286118684E0828B82E0838BCC
:100FE00081E0848B80E1858B80E2868B80E4878B37
:100FF00080E8808F40E050E063E0CF010C94EE0287
:10100000789484B5826084BD84B5816084BD85B5E3
:10101000826085BD85B5816085BD80916E008160EF
:1010200080936E0010928100809181008260809395
:101030008100809181008160809381008091800097
:101040008160809380008091B10084608093B100C2
:101050008091B00081608093B00080917A008460BC
:1010600080937A0080917A00826080937A008091E8
:101070007A00816080937A0080917A008068809302
:101080007A001092C10020E042E060E180E694E046
:101090000E94330561E080E694E00E94190562E059
:1010A0008FE00E943C0262E08EE00E943C0261E020
:1010B00082E00E943C02E091C703F091C80382E005
:1010C0008083E091C303F091C4031082E091C503D3
:1010D000F091C6038FEC80831092CF03E091CB0395
:1010E000F091CC0386E08083E091C903F091CA03BC
:1010F000808180618083E091C903F091CA0380817F
:1011000088608083E091C903F091CA038081806880
:101110008083E091C903F091CA0380818F7D808331
:1011200080E00E94170383E491E00E94B90581E00A
:101130000E94170384E591E00E94B9056AEF70E010
:1011400080E090E00E94B40284E691E00E94B9053C
:101150006AEF70E080E090E00E94B40285E791E0E1
:101160000E94B9056AEF70E080E090E00E94B4024E
:1011700086E891E00E94B9056AEF70E080E090E0B7
:101180000E94B40287E991E00E94B9056AEF70E01D
:1011900080E090E00E94B40288EA91E00E94B905E4
:1011A0006AEF70E080E090E00E94B40289EB91E089
:1011B0000E94BE0580ED91E00E94BE0560E082E0E5
:1011C0000E94EF0168EE73E080E090E00E94B402BC
:1011D000C1E0D0E060ED77E080E090E00E94B402F2
:1011E0008FE00E9478028C018EE00E947802043623
:1011F00011052CF4D0936B03C0936A0304C01092C2
:101200006B0310926A03843691052CF4D093690322
:10121000C093680304C01092690310926803809120
:101220006A0390916B03892BE1F48091680390919C
:101230006903892BB1F48BED91E00E94BE0580E03B
:101240000E94170386EF91E00E94B90581E00E9499
:10125000170387E092E00E94B90560E082E00E94F7
:10126000EF0180916A0390916B03892B01F58091C6
:101270006803909169030197D1F488E192E00E949C
:10128000BE0584E392E00E94BE0580E00E94170341
:101290008AE592E00E94B90581E00E9417038BE67F
:1012A00092E00E94B90560E082E00E94EF01809127
:1012B0006A0390916B030197C1F480916803909148
:1012C0006903892B91F48CE792E00E94BE0580E0CF
:1012D0000E94170386EF91E00E94B90581E00E9409
:1012E00017038BEA92E00E94B90580916A039091FE
:1012F0006B030197E1F48091680390916903019772
:10130000B1F48CEB92E00E94BE0580E00E941703CE
:1013100086EF91E00E94B90581E00E94170385EEF7
:1013200092E00E94B90561E082E00E94EF010E9414
:10133000E50150CFEE0FFF1F0590F491E02D0994C9
:0E13400081E090E0F8940C94A509F894FFCF9A
:10134E000040145400401050000000007601E300ED
:10135E000D01C3013E011C013001000000007604A6
:10136E0049049F051D0441042D041E0400000000C5
:10137E000403E3009F059E053305EE021905FA04EA
:10138E000D0A00204E4956454C2044452043414904
:10139E0058412000434152524547414E444F2E2062
:1013AE0020202000434152524547414E444F2E2E9D
:1013BE002020202000434152524547414E444F2E9B
:1013CE002E2E20202000434152524547414E444F7D
:1013DE002E2E2E2E202000434152524547414E4480
:1013EE004F2E2E2E2E2E2000434152524547414E57
:1013FE00444F2E2E2E2E2E2E004C4549544F522049
:10140E004445204341495841204427414755410016
:10141E00434152524547414E444F004120434149BA
:10142E0058412044274147554120455354412043BC
:10143E00484549412E002020412043414958412032
:10144E004553544120200020202020204348454968
:10145E00412E20202020200050524F424C454D411D
:10146E0020454D20554D20444F532053454E534F4C
:10147E00524553004C494755452050415241204159
:10148E005353495354454E43494120283833293349
:10149E003033332D333339312000204F2053454E16
:1014AE00534F5220204553544120002020202044E9
:1014BE0045464549544F20202020200041204341DD
:1014CE004958412044274147554120455354412016
:1014DE00454D20554D204E4956454C20494E5445BC
:1014EE00524D4544494152494F2E00202050454C03
:1014FE004120204D45544144452020004120434188
:10150E0049584120442741475541204553544120D5
:10151E00454D20554D204E4956454C204352495479
:10152E0049434F2E00202020202056415A49412E5B
:06153E0020202020200007
:107E0000112484B714BE81FFF0D085E080938100F7
:107E100082E08093C00088E18093C10086E0809377
:107E2000C20080E18093C4008EE0C9D0259A86E02C
:107E300020E33CEF91E0309385002093840096BBD3
:107E4000B09BFECF1D9AA8958150A9F7CC24DD24C4
:107E500088248394B5E0AB2EA1E19A2EF3E0BF2EE7
:107E6000A2D0813461F49FD0082FAFD0023811F036
:107E7000013811F484E001C083E08DD089C08234E0
:107E800011F484E103C0853419F485E0A6D080C0E4
:107E9000853579F488D0E82EFF2485D0082F10E0AE
:107EA000102F00270E291F29000F111F8ED06801E7
:107EB0006FC0863521F484E090D080E0DECF843638
:107EC00009F040C070D06FD0082F6DD080E0C81688
:107ED00080E7D80618F4F601B7BEE895C0E0D1E017
:107EE00062D089930C17E1F7F0E0CF16F0E7DF06D8
:107EF00018F0F601B7BEE89568D007B600FCFDCFD4
:107F0000A601A0E0B1E02C9130E011968C91119780
:107F100090E0982F8827822B932B1296FA010C0160
:107F200087BEE89511244E5F5F4FF1E0A038BF0790
:107F300051F7F601A7BEE89507B600FCFDCF97BE46
:107F4000E89526C08437B1F42ED02DD0F82E2BD052
:107F50003CD0F601EF2C8F010F5F1F4F84911BD097
:107F6000EA94F801C1F70894C11CD11CFA94CF0C13
:107F7000D11C0EC0853739F428D08EE10CD085E9AC
:107F80000AD08FE07ACF813511F488E018D01DD067
:107F900080E101D065CF982F8091C00085FFFCCF94
:107FA0009093C60008958091C00087FFFCCF809118
:107FB000C00084FD01C0A8958091C6000895E0E648
:107FC000F0E098E1908380830895EDDF803219F02E
:107FD00088E0F5DFFFCF84E1DECF1F93182FE3DFCA
:107FE0001150E9F7F2DF1F91089580E0E8DFEE27F6
:047FF000FF270994CA
:027FFE00040479
:0400000300007E007B
:00000001FF
